:100000000C942A000C943F000C943F000C943F0089
:100010000C943F000C943F000C943F000C943F0064
:100020000C943F000C943F000C943F000C943F0054
:100030000C943F000C943F000C943F000C943F0044
:100040000C943F000C943F000C943F000C943F0034
:100050000C943F0011241FBECFE5D8E0DEBFCDBF1A
:1000600010E0A0E6B0E0E2E3F4E002C005900D92FB
:10007000A437B107D9F70E9451000C9417020C94D1
:10008000000080EC87B987EA86B9089597B1907F20
:100090008F70892B87B9369A3699FECF84B195B186
:1000A0000895CF93DF93CDB7DEB728970FB6F894B6
:1000B000DEBF0FBECDBF8FEF84BB81BB1ABA0E94DB
:1000C00041000F2EFAE0CF2ED12CF02DCE0101965B
:1000D0007C0100E010E00F5F1F4FC8010E94460046
:1000E000F701819391937F0104301105A1F72B81D2
:1000F0003C8189819A81821793070CF4C9012D8173
:100100003E81821793070CF4C9016F8178856817C7
:1001100079070CF4BC01072E000C880B990B0E9488
:10012000F6002AE037ED43E250E40E945A0120E055
:1001300030E048EC52E40E945A0120E030E040E810
:100140005AE30E945A010E94BE00CB01B6010E94F0
:10015000EF01FC01EE0FFF1FE05AFF4F808182BBD1
:10016000660F771FFB01E05AFF4F808185BB83EC50
:1001700099E00197F1F700C00000A8CF0E94C500E8
:100180006894B1110C94540108950E94390188F0CB
:100190009F5798F0B92F9927B751B0F0E1F0660F4B
:1001A000771F881F991F1AF0BA95C9F714C0B1308C
:1001B00091F00E945301B1E008950C945301672F10
:1001C000782F8827B85F39F0B93FCCF386957795BB
:1001D0006795B395D9F73EF49095809570956195A4
:1001E0007F4F8F4F9F4F0895E89409C097FB3EF4CF
:1001F00090958095709561957F4F8F4F9F4F992374
:10020000A9F0F92F96E9BB279395F69587957795F1
:100210006795B795F111F8CFFAF4BB0F11F460FFB1
:100220001BC06F5F7F4F8F4F9F4F16C0882311F009
:1002300096E911C0772321F09EE8872F762F05C01D
:10024000662371F096E8862F70E060E02AF09A95B8
:10025000660F771F881FDAF7880F9695879597F9AD
:10026000089557FD9058440F551F59F05F3F71F0A6
:100270004795880F97FB991F61F09F3F79F087950D
:100280000895121613061406551FF2CF4695F1DF96
:1002900008C0161617061806991FF1CF8695710526
:1002A000610508940895E894BB2766277727CB015A
:1002B00097F908950E946D010C94DE010E94D0010F
:1002C00038F00E94D70120F0952311F00C94C7015B
:1002D0000C94CD0111240C9454010E94310170F34F
:1002E000959FC1F3950F50E0551F629FF001729FDB
:1002F000BB27F00DB11D639FAA27F00DB11DAA1FEA
:10030000649F6627B00DA11D661F829F2227B00D36
:10031000A11D621F739FB00DA11D621F839FA00DC1
:10032000611D221F749F3327A00D611D231F849F11
:10033000600D211D822F762F6A2F11249F57504068
:100340009AF0F1F088234AF0EE0FFF1FBB1F661FE3
:10035000771F881F91505040A9F79E3F510580F0AC
:100360000C94C7010C9454015F3FE4F3983ED4F31E
:10037000869577956795B795F795E7959F5FC1F750
:10038000FE2B880F911D9695879597F9089597F9FB
:100390009F6780E870E060E008959FEF80EC08952B
:1003A00000240A9416161706180609060895002454
:1003B0000A9412161306140605060895092E0394CE
:1003C000000C11F4882352F0BB0F40F4BF2B11F442
:1003D00060FF04C06F5F7F4F8F4F9F4F089597FB63
:1003E000072E16F4009407D077FD09D00E9403026F
:1003F00007FC05D03EF4909581959F4F0895709528
:1004000061957F4F0895AA1BBB1B51E107C0AA1F2E
:10041000BB1FA617B70710F0A61BB70B881F991FA5
:100420005A95A9F780959095BC01CD010895F8944F
:02043000FFCFFC
:100432003F0006005B004F0066006D007D00070074
:040442007F006F00C8
:00000001FF
